{
  "contractName": "GreetingsFactory",
  "abi": [
    {
      "constant": false,
      "inputs": [
        {
          "name": "_greeting",
          "type": "string"
        }
      ],
      "name": "setGreetings",
      "outputs": [],
      "payable": false,
      "stateMutability": "nonpayable",
      "type": "function"
    },
    {
      "constant": true,
      "inputs": [],
      "name": "getGreetings",
      "outputs": [
        {
          "name": "_greeting",
          "type": "string"
        },
        {
          "name": "_greeter",
          "type": "address"
        }
      ],
      "payable": false,
      "stateMutability": "view",
      "type": "function"
    },
    {
      "inputs": [],
      "payable": false,
      "stateMutability": "nonpayable",
      "type": "constructor"
    }
  ],
  "bytecode": "0x6060604052341561000f57600080fd5b6100606040805190810160405280600a81526020017f48657920746865726521000000000000000000000000000000000000000000008152506100656401000000000261016f176401000000009004565b610165565b33600160006101000a81548173ffffffffffffffffffffffffffffffffffffffff021916908373ffffffffffffffffffffffffffffffffffffffff16021790555080600090805190602001906100bc9291906100c0565b5050565b828054600181600116156101000203166002900490600052602060002090601f016020900481019282601f1061010157805160ff191683800117855561012f565b8280016001018555821561012f579182015b8281111561012e578251825591602001919060010190610113565b5b50905061013c9190610140565b5090565b61016291905b8082111561015e576000816000905550600101610146565b5090565b90565b610381806101746000396000f30060606040526004361061004c576000357c0100000000000000000000000000000000000000000000000000000000900463ffffffff16806349da5de414610051578063ca4c3a41146100ae575b600080fd5b341561005c57600080fd5b6100ac600480803590602001908201803590602001908080601f0160208091040260200160405190810160405280939291908181526020018383808284378201915050505050509190505061016f565b005b34156100b957600080fd5b6100c16101ca565b60405180806020018373ffffffffffffffffffffffffffffffffffffffff1673ffffffffffffffffffffffffffffffffffffffff168152602001828103825284818151815260200191508051906020019080838360005b83811015610133578082015181840152602081019050610118565b50505050905090810190601f1680156101605780820380516001836020036101000a031916815260200191505b50935050505060405180910390f35b33600160006101000a81548173ffffffffffffffffffffffffffffffffffffffff021916908373ffffffffffffffffffffffffffffffffffffffff16021790555080600090805190602001906101c692919061029c565b5050565b6101d261031c565b600080600160009054906101000a900473ffffffffffffffffffffffffffffffffffffffff16818054600181600116156101000203166002900480601f01602080910402602001604051908101604052809291908181526020018280546001816001161561010002031660029004801561028d5780601f106102625761010080835404028352916020019161028d565b820191906000526020600020905b81548152906001019060200180831161027057829003601f168201915b50505050509150915091509091565b828054600181600116156101000203166002900490600052602060002090601f016020900481019282601f106102dd57805160ff191683800117855561030b565b8280016001018555821561030b579182015b8281111561030a5782518255916020019190600101906102ef565b5b5090506103189190610330565b5090565b602060405190810160405280600081525090565b61035291905b8082111561034e576000816000905550600101610336565b5090565b905600a165627a7a72305820568d1fc07e00eb25244dde567e72a5068fdbe69a3cd50f4269835b99695dbac30029",
  "source": "pragma solidity ^0.4.17;\n\ncontract GreetingsFactory {\n    string greeting;\n    address greeter;\n\n    function GreetingsFactory() public {\n        setGreetings('Hey there!');\n    }\n\n    function getGreetings() public view returns (string _greeting, address _greeter) {\n        return(greeting, greeter);\n    }\n\n    function setGreetings(string _greeting) public {\n        greeter = msg.sender;\n        greeting = _greeting;\n    }\n}\n",
  "sourcePath": "/Users/doriansomers/code/dsmrs/my-first-contract/contracts/GreetingsFactory.sol",
  "compiler": {
    "name": "solc",
    "version": "0.4.18+commit.9cf6e910.Emscripten.clang"
  },
  "schemaVersion": "1.0.1",
  "updatedAt": "2018-04-01T17:39:40.890Z"
}